buy transaction detected...
{
  hash: '0xb7e6a62940f9a77fc663e63274e16f8f33cffd9a7eb456a10e6de79fd11efcc4',
  type: 2,
  accessList: [],
  blockHash: '0x3fb2e8f2b3f05e285a80f68c0952c27edd610dadcea5c96187cf7723ed475ac2',
  blockNumber: 29014811,
  transactionIndex: 0,
  confirmations: 11,
  from: '0x4109c48eE7266Fe937f5D7d57e99f9cEa72736E8',
  gasPrice: BigNumber { _hex: '0x012a05f200', _isBigNumber: true },
  maxPriorityFeePerGas: BigNumber { _hex: '0x012a05f200', _isBigNumber: true },
  maxFeePerGas: BigNumber { _hex: '0x012a05f200', _isBigNumber: true },
  gasLimit: BigNumber { _hex: '0x0f4240', _isBigNumber: true },
  to: '0x7a250d5630B4cF539739dF2C5dAcb4c659F2488D',
  value: BigNumber { _hex: '0x038d7ea4c68000', _isBigNumber: true },
  nonce: 129,
  data: '0x7ff36ab5000000000000000000000000000000000000000000000000000000000000000000000000000000000000000000000000000000000000000000000000000000800000000000000000000000004109c48ee7266fe937f5d7d57e99f9cea72736e80000000000000000000000000000000000000000000000000000017e087778760000000000000000000000000000000000000000000000000000000000000002000000000000000000000000d0a1e359811322d97991e03f863a0c30c2cf029c000000000000000000000000ba421d179e05ca4b3176497620b78a6b059bd381',
  r: '0x4e489532c2151d063402659844d21befacf5600692b32979d2682219147e49a6',
  s: '0x540cb49a4f75f641f35b978cb15bdeafc5c80ff53d85d48636675806ed36ad25',
  v: 0,
  creates: null,
  raw: '0x02f9015a2a818185012a05f20085012a05f200830f4240947a250d5630b4cf539739df2c5dacb4c659f2488d87038d7ea4c68000b8e47ff36ab5000000000000000000000000000000000000000000000000000000000000000000000000000000000000000000000000000000000000000000000000000000800000000000000000000000004109c48ee7266fe937f5d7d57e99f9cea72736e80000000000000000000000000000000000000000000000000000017e087778760000000000000000000000000000000000000000000000000000000000000002000000000000000000000000d0a1e359811322d97991e03f863a0c30c2cf029c000000000000000000000000ba421d179e05ca4b3176497620b78a6b059bd381c080a04e489532c2151d063402659844d21befacf5600692b32979d2682219147e49a6a0540cb49a4f75f641f35b978cb15bdeafc5c80ff53d85d48636675806ed36ad25',
  chainId: 42,
  wait: [Function (anonymous)]
}
